:020000040800F2
:10000000D8070020ED0100080F1A0008CF180008DB
:100010000D1A00087D060008851E0008000000007B
:10002000000000000000000000000000851A000829
:100030007F06000800000000111A0008871A000857
:10004000070200080702000807020008070200086C
:10005000070200080702000807020008070200085C
:10006000070200080702000807020008070200084C
:10007000070200080702000807020008070200083C
:10008000070200080702000807020008070200082C
:10009000070200080702000807020008070200081C
:1000A000070200080702000807020008070200080C
:1000B000F91A0008070200080702000807020008F2
:1000C00007020008070200080702000807020008EC
:1000D000070200080702000807020008791E00084E
:1000E00007020008070200080702000800000000DD
:1000F0000000000000000000000000000000000000
:1001000000000000000000000702000807020008CD
:10011000070200080702000807020008070200089B
:10012000070200080702000807020008070200088B
:10013000070200080000000000000000070200089D
:10014000070200080702000807020008070200086B
:1001500000F002F800F03AF80AA090E8000C82449F
:100160008344AAF10107DA4501D100F02FF8AFF27C
:10017000090EBAE80F0013F0010F18BFFB1A43F085
:1001800001031847681F0000881F0000103A24BFB1
:1001900078C878C1FAD8520724BF30C830C144BFEC
:1001A00004680C607047000000230024002500262E
:1001B000103A28BF78C1FBD8520728BF30C148BFCA
:1001C0000B6070471FB51FBD10B510BD00F046F99C
:1001D0001146FFF7F7FF01F066FE00F064F903B483
:1001E000FFF7F2FF03BC00F06BF9000009488047FD
:1001F00009480047FEE7FEE7FEE7FEE7FEE7FEE709
:10020000FEE7FEE7FEE7FEE704480549054A064B20
:1002100070470000F51A000851010008D8010020BD
:10022000D8070020D8030020D803002053EA020C8E
:1002300000F069802DE9F04B4FF00006002B1FBF46
:10024000B3FA83F503FA05F424FA05F65E4012BF0B
:100250001643B2FA82F502FA05F4C5F120051EBF75
:1002600022FA05FC44EA0C04203556EA044C4FEA15
:10027000144418BF641C4FF000084FF0000990426E
:1002800071EB030C39D3002919BFB1FA81F701FAD8
:1002900007F6B0FA80F700FA07F6C7F120071EBF8D
:1002A00020FA07FC46EA0C062037B6FBF4FCA7EB65
:1002B0000507103F07F01F0BCBF120060CFA0BFBD4
:1002C0002CFA06F644BFB3460026202FA4BF5E4694
:1002D0004FF0000B5BEA060C08BF4FF0010B19EB67
:1002E0000B09ABFB027C48EB0608C01B06FB02CCEB
:1002F0000BFB03CC71EB0C01C1E70B4602464146F8
:100300004846BDE8F08B13B54FF000004FF00001F8
:10031000AFF30080BDE81C407047032A40F23080F4
:1003200010F0030C00F0158011F8013BBCF1020F36
:10033000624498BF11F801CB00F8013B38BF11F8B7
:10034000013BA2F1040298BF00F801CB38BF00F8CE
:10035000013B11F0030300F04F80083AC0F0088021
:1003600051F8043B083A51F804CBA0E80810F5E72F
:10037000121D5CBF51F8043B40F8043BAFF3008012
:10038000D20724BF11F8013B11F801CB48BF11F887
:10039000012B24BF00F8013B00F801CB48BF00F857
:1003A000012B70474FF0000200B513469446964665
:1003B000203922BFA0E80C50A0E80C50B1F1200178
:1003C000BFF4F7AF090728BFA0E80C5048BF0CC026
:1003D0005DF804EB890028BF40F8042B08BF704784
:1003E00048BF20F8022B11F0804F18BF00F8012BF6
:1003F000704770477047704710B5203AC0F00B80C7
:10040000B1E81850203AA0E81850B1E81850A0E818
:100410001850BFF4F5AF5FEA027C24BFB1E8185072
:10042000A0E8185044BF18C918C0BDE810405FEAE2
:10043000827C24BF51F8043B40F8043B08BF70475E
:10044000D20728BF31F8023B48BF11F8012B28BF63
:1004500020F8023B48BF00F8012B7047754600F0BA
:100460002BF8AE4605006946534620F00700854646
:1004700018B020B5FFF7C8FEBDE820404FF00006D9
:100480004FF000074FF000084FF0000B21F007017C
:10049000AC46ACE8C009ACE8C009ACE8C009ACE8BF
:1004A000C0098D46704710B50446AFF30080204662
:1004B000BDE81040FFF793BE00487047740100206C
:1004C00001491820ABBEFEE726000200704730B598
:1004D000030043F292600DD048F20844491E89B2ED
:1004E00009D313F8012B50400022C50704D084EA39
:1004F000500002E0002030BD4008521CD2B2082A51
:10050000F3D3EBE702490888421C0A8070470000D9
:100510001800002008B52321034B0A460091A3F1DF
:100520003C0100F027F808BD5220000808B523213F
:10053000034B0A460091A3F15B0100F01BF808BDD4
:100540007520000808B52321034B0A460091A3F14A
:100550007A0100F00FF808BD9820000808B50921BD
:10056000034B0091C022A3F13B0100F003F808BD4A
:100570004920000870B58CB01546109A02F10D04A0
:10058000E4B279B3302C2ED802B15BB355268DF886
:1005900000608DF801400968CDF802108DF8060062
:1005A000000A8DF8070040208DF808000D208DF816
:1005B00009008DF80A5022B119460DF10B00FFF722
:1005C000ACFEA01E81B26846FFF781FF0DEB04016F
:1005D00001F8020D000A48702146684601F02AFA27
:1005E0000CB070BDFFE74FF0FF30F9E708B5092107
:1005F000034B00910122A3F13C01FFF7BBFF08BDB3
:100600002E20000808B50421034B00910322191F76
:10061000FFF7B0FF08BD00000220000808B5012167
:10062000034B0091DA2203F13501FFF7A3FF08BD68
:10063000F11F000808B50121034B0091C42203F10A
:100640002201FFF797FF08BDF01F000808B504213D
:10065000034B00910222191FFFF78CFF08BD000019
:10066000FA1F000808B50921034B00910422A3F1E9
:100670003101FFF77FFF08BD37200008FEE7704714
:1006800072B6FEE710B590F821100022022905D0BD
:100690000421816380F82020012010BD01680B68CF
:1006A00023F00E030B6001680B6823F001030B605D
:1006B00090F84030C46B012101FA03F3636080F8C5
:1006C000211080F82020104610BD00002DE9F05FB9
:1006D00090F821100024022903D004218163012411
:1006E00085E001680A6822F00E020A6001680A6863
:1006F00022F001020A603F4E3E4FB215DFF8F4C00F
:10070000DFF8F090DFF8ECA0DFF8E8B0DFF8E4E025
:100710000168783F13011502ACF1640CA9F150098E
:10072000AAF13C0AABF1280BAEF1140E4FF480187D
:10073000B14227D9B9420ED0614512D049451DD0EA
:10074000514518D0594518D0714501D1424615E0A0
:10075000294EB14201D1012210E0274E1436B14298
:1007600001D110220AE0244E2836B14206D0224A96
:100770003C32914201D11A4600E02A461E49091F27
:100780000A602BE0B94213D0614517D0494522D009
:1007900051451DD059451DD0714501D142461AE041
:1007A000B14202D14FF0807215E0134EB14201D137
:1007B000012210E0104E1436B14201D110220AE09D
:1007C0000D4E2836B14206D00B4A3C32914201D13F
:1007D0001A4600E02A46074980394A60012180F81C
:1007E0002110002180F82010416B01B1884720467C
:1007F000BDE8F09F800002400804024070B5044646
:1008000000F004F90546601C02D004480078044456
:1008100000F0FCF8401BA042FAD370BD000000209D
:100820002DE9F84FDFF8B8910024A9F1040B234615
:100830000F2709F1040AABF1040EC9E00125A54018
:100840002A40AA427DD1674ED1F804C0ACEB06081D
:10085000B44532D014DCBCF1030F3AD009DCBCF152
:10086000000F2AD0BCF1010F1CD0BCF1020F31D116
:100870001DE0BCF1110F17D0BCF1120F2AD119E005
:10088000B8F5881F19D006DCB8F5803F15D0B8F54B
:10089000801F1FD111E0B8F5001F0ED0B8F5041F5E
:1008A00018D10AE0CB6815E0CB681B1D12E0CB68BD
:1008B00008330FE0CB680C330CE08B682BB1012BB5
:1008C0004FF0080303D0456104E0042302E0056112
:1008D00000E00023FF2A01D8064601E000F10406EB
:1008E0004FEA840501D9A5F12005D6F8008007FA62
:1008F00005FC28EA0C0803FA05F548EA0508C6F8DD
:1009000000804D68ED0062D5374DAE6946F00106B6
:10091000AE61AD6924F0030605F001050095334D85
:1009200006EB050CDCF80850A607360F07FA06F8A8
:1009300025EA0805DFF8B880404503D14FF00008EC
:1009400017E044E0DFF8AC80404502D14FF00108E9
:100950000FE0DFF8A480404502D14FF0020808E024
:10096000DFF89880404502D14FF0030801E04FF0D6
:10097000040808FA06F848EA0508CCF808804D682B
:10098000D9F80060ED024D4601D5164300E09643CC
:100990002E604D68DAF80060AD02554601D5164369
:1009A00000E096432E604D68DBF80060AD035D46C5
:1009B00001D5164300E096432E604D68DEF80060D6
:1009C000ED03754601D5164300E096432E60641C86
:1009D0000D682A46E5407FF431AFBDE8F88F00008E
:1009E0000804014000001110001002400000014006
:1009F00000080140000C01400010014000140140BB
:100A00000AB1016170470904FBE7000001488068F2
:100A100070470000000000200248816802781144FD
:100A20008160704700000020074810B5016841F060
:100A300010010160032000F075F80F2000F006F8A7
:100A400000F024F8002010BD0020024070B50D4DCC
:100A500004464FF47A712878B1FBF0F00A4909682E
:100A6000B1FBF0F000F05EFB48B9102C07D2002279
:100A70002146501E00F036F800206C6070BD012049
:100A800070BD0000000000200C0000200C4808B5DC
:100A9000816941F001018161816901F001010091E9
:100AA000C16941F08051C161C06900F0805000907F
:100AB0000448416821F0E06141F00071416008BDE7
:100AC0000010024000000140002809DB00F01F0276
:100AD000012191404009800000F1E020C0F80011A0
:100AE00070470000F0B40E4B1B680C46C3F30223A2
:100AF000C3F10705042D00D90425191D072901D2CA
:100B0000002300E0DB1E012606FA05F1491E214004
:100B100099409E40761E16403143F0BC01F0B3B9B7
:100B20000CED00E0064900F0070208684FF6FF03ED
:100B3000184040EA0220034A104308607047000052
:100B40000CED00E00000FA052DE9F0470F46050026
:100B500061D0434E306800F00700B84209D23068D7
:100B600020F0070038433060306800F00700B842DA
:100B700051D128683B4C810712D5400703D56068E6
:100B800040F4E06060602878000703D5606840F4B6
:100B9000605060606068A96820F0F0000843606001
:100BA0002878C00728D06868012810D0216802285A
:100BB00010D0890700292EDA616821F00301014372
:100BC0006160FFF723FF804641F288390DE021681C
:100BD0008903EFE78901EDE7FFF718FFA0EB0801B4
:100BE000494502D90320BDE8F0876068696800F0D4
:100BF0000C00B0EB810FEFD1306800F00700B84275
:100C00000BD9306820F0070038433060306800F0BE
:100C10000700B84201D00120E5E72878400705D554
:100C20006068E96820F4E0600843606028780007A5
:100C300006D56068296920F4605040EAC100606010
:100C400000F038F86168084AC1F30311515CC840EC
:100C50000649086006480068FFF7F8FE0020C2E772
:100C60000020024000100240D81F00080C000020A5
:100C7000040000200448054900684968044AC1F39B
:100C80000221515CC84070470C0000200010024057
:100C9000E81F00080448054900684968044AC1F390
:100CA000C221515CC84070470C0000200010024077
:100CB000E81F00082DE9F0411D494A681D4802F06F
:100CC0000C03042B2ED0082B2CD11B48C2F38343DA
:100CD000C45CD00328D5C86A174A00F00F000E3252
:100CE000105CCA6AD20316D5CA6AC96AC2F3031273
:100CF000C1F30321521C891CA2FB0023A1FB041594
:100D00000C4F0026A1FB070C05FB07C501FB065194
:100D1000FFF78CFA03E007496143B1FBF0F00D2CBB
:100D200000D14008BDE8F08104486043FAE70000C4
:100D30000010024000127A00BA1F000800093D00AE
:100D40002DE9F84F040070D02078F14DC00749D04C
:100D50006868C0F38100012807D06868C0F381008B
:100D6000022809D16868C00306D52868800339D5F0
:100D7000A0680028E7D035E0A068B0F5803F0BD030
:100D800010B1B0F5A02F11D0286820F48030286071
:100D9000286820F4802002E0286840F48030286031
:100DA000A06890B1FFF732FE06460AE0286840F4DA
:100DB00080202860F0E700BFFFF728FE801B642832
:100DC00076D828688003F7D50CE0FFF71FFE0646AB
:100DD00005E000BFFFF71AFE801B6428F0D82868E2
:100DE0008003F7D42078CB4E80074FF001094FF0F5
:100DF00000073AD5686810F00C0F07D06868C0F398
:100E00008100022809D16868C00306D428688007D9
:100E100015D56069012808D111E06069B8B1C6F83C
:100E20000090FFF7F3FD804606E042E1FFF7EEFD9C
:100E3000A0EB08000228C3D828688007F6D52868E8
:100E4000A16920F0F80040EAC10028600DE0376099
:100E5000FFF7DCFD804605E0FFF7D8FDA0EB0800BA
:100E60000228ADD828688007F6D4207800072ED550
:100E7000A948E169E9B1C0F80090FFF7C7FD8046D5
:100E800006E000BFFFF7C2FDA0EB0800022897D8DC
:100E9000686A8007F6D5A1484FF4FA510068B0FBA4
:100EA000F1F0009000BF0098411E0091FAD20EE0D0
:100EB000B0E00760FFF7AAFD804605E0FFF7A6FD5A
:100EC000A0EB0800022889D8686A8007F6D4207849
:100ED000400763D5E8694FF00008C00009D4E8690D
:100EE00040F08050E861E8694FF0010800F0805060
:100EF00000908B480168C90512D40168834641F40B
:100F000080710160FFF782FD824605E0FFF77EFDFC
:100F1000A0EB0A0064287DD8DBF80000C005F5D5F9
:100F2000206901280AD008B1052813D0286A20F0CA
:100F300001002862286A20F0040002E0286A40F0DC
:100F400001002862206941F2883B98B1FFF75EFDFD
:100F500082460BE0286A40F004002862EEE700BFFA
:100F6000FFF754FDA0EB0A01594553D8286A8007C2
:100F7000F6D50CE0FFF74AFD824605E0FFF746FD97
:100F8000A0EB0A01594545D8286A8007F6D4B8F184
:100F9000000F03D0E86920F08050E861E06AD0B328
:100FA0006968C90307D56968C1F38101022902D1C3
:100FB000E96AC9037DD4022808D0E86A20F48030A9
:100FC000E862B766FFF722FD80463BE02868C00074
:100FD00005D5E86A616B00F0F000884269D1B76618
:100FE000FFF714FD804605E0FFF710FDA0EB0800B9
:100FF000642874D828680001F6D4E86A616B20F090
:10100000F0000843E862E86A216B20F4706008434E
:10101000E86201E063E018E0C6F86890FFF7F6FCCC
:10102000804605E0FFF7F2FCA0EB0800642856D8E4
:1010300028680001F6D508E0FFF7E8FCA0EB0800FF
:1010400064284CD828680001F6D4206A90B36968F7
:10105000C1F38101022949D00228376603D0FFF786
:10106000D5FC04463EE0FFF7D1FC074605E000BF93
:10107000FFF7CCFCC01B022831D828688001F7D4C8
:10108000606AB0F5803F09D1E86A61680843E862A8
:10109000E86AE16820F00F000843E862D4E909013A
:1010A0000843696821F4741108436860C6F86090C9
:1010B00001E028E029E0FFF7A9FC044605E000BFB5
:1010C000FFF7A4FC001B022809D828688001F7D587
:1010D0001BE000BFFFF79AFC001B022802D9032087
:1010E000BDE8F88F28688001F4D40EE00128F7D01D
:1010F0006868626A00F48031914204D1A16A00F408
:101100007010884201D00120EAE70020E8E70000E3
:101110000010024000004242800442420C000020C5
:101120000070004010B5401EB0F1807F01D3012057
:1011300010BD4FF0E02460610F21601700F0A3FEA6
:101140000020A06107202061002010BD704770477B
:1011500070B590F83C20012A29D0012480F83C4049
:10116000022280F83D2003685A689D6822F07006CC
:101170000A6832435A600F4B02689A420BD0B2F1B0
:10118000804F08D00C4B9A4205D00C4B9A4202D0AB
:101190000B4B9A4204D1496825F0800319439160B2
:1011A00080F83D40002180F83C10084670BD0220C8
:1011B00070BD0000002C0140000400400008004009
:1011C000000C004010B5040003D094F83D0010B1AD
:1011D00007E0012010BD002084F83C00204600F00C
:1011E0001FF8022084F83D00211D206800F08AFCD1
:1011F000012084F8460084F83E0084F83F0084F81B
:10120000400084F8410084F8420084F8430084F8E8
:10121000440084F8450084F83D00002010BD000023
:1012200008B50068B0F1804F12D10A48C16941F099
:101230000101C161C069002200F001000090114667
:101240001C20FFF74FFCBDE808401C20FFF73CBC0A
:1012500008BD00000010024070B5044690F83C0044
:101260000025012817D0012684F83C60022084F86C
:101270003D002068826822F0770222F47F4282607B
:101280000868502838D00DDC20284FD005DC90B3FA
:10129000102811D14AE0022070BD302846D04028E5
:1012A0000AD13BE060282FD070280DD0B0F5805FC8
:1012B00003D0B0F5005F12D0012584F83D60002016
:1012C00084F83C00284670BDCB68D1E90121206834
:1012D00000F05CFC2068816841F0770109E0CB6890
:1012E000D1E90121206800F051FC2068816841F4B7
:1012F00080418160E1E719E0CA684968206800F030
:1013000057FC5021206806E0CA684968206800F050
:1013100060FC6021206800F043FCCEE7CA684968A1
:10132000206800F045FC40212068F4E7226801466F
:101330001046F0E770472DE9F04104460068C668A2
:1013400005694FF00007A90713D5B10711D5F91E9C
:10135000016101202077206880698007204602D043
:10136000FFF7E8FF04E000F07EF8204600F07CF88C
:101370002777680716D5700714D521686FF0040029
:101380000861022020772068806910F4407F2046A1
:1013900002D0FFF7CFFF04E000F065F8204600F030
:1013A00063F82777280715D5300713D521686FF024
:1013B00008000861042020772068C0698007204663
:1013C00002D0FFF7B7FF04E000F04DF8204600F030
:1013D0004BF82777E80616D5F00614D521686FF08C
:1013E00010000861082020772068C06910F4407F51
:1013F000204602D0FFF79EFF04E000F034F82046BC
:1014000000F032F82777E80708D0F00706D0216807
:101410006FF001000861204600F027F8280608D583
:10142000300606D521686FF0800008612046FFF77E
:101430008DFE680608D5700606D521686FF040005D
:101440000861204600F012F8A8060AD5B00608D5B3
:1014500021686FF0200008612046BDE8F041FFF7E9
:1014600076BEBDE8F081704770477047704770479F
:1014700070470000F8B5016804460868CA684B69FF
:1014800010F00F0F4FF0000559D003F0010602F4E1
:101490009077374365D0C10705D0D10503D5616C7E
:1014A00041F001016164410705D5D90703D0616CA2
:1014B00041F002016164810705D5D90703D0616C51
:1014C00041F004016164010707D502F020013143B6
:1014D00003D0616C41F008016164616C00293AD06D
:1014E000800604D5900602D5204600F0B3FB2068A4
:1014F0004069616CC0F38010090700D460B32046D6
:1015000000F081FB20684069400621D52068143036
:1015100050E8001F21F0400140E80012002AF5D1F8
:10152000E06BA8B16D494163E06BFFF7CFF800288D
:1015300011D0E06B416B01B0BDE8F0400847830675
:101540000FD593060DD52046BDE8F84000F082BBCC
:101550002046FFF78DFFF8BD2046FFF789FF656441
:10156000F8BD266B2023012E7CD1C6067AD5D6067F
:1015700078D508684868009048694FF00206400630
:1015800040D5E16B086840680004000CE8D0A28DEB
:101590008242E5D9E085886920282DD020680C306A
:1015A00050E8001F21F4807140E80012002AF5D1B4
:1015B0002068143050E8001F21F0010140E80012BB
:1015C000002AF5D12068143050E8001F21F04001B6
:1015D00040E80012002AF5D184F8423025632068E3
:1015E0000C3050E8001F21F0100140E80012002AE2
:1015F000F5D1E06BFFF746F86663A08DE18D401AE8
:1016000081B22AE0A08DE18D401A81B2E08D0028E0
:10161000A6D00029A4D022680C3252E8000F20F492
:10162000907042E80007002FF5D12068143050E890
:10163000002F22F0010240E80027002FF5D184F8A6
:101640004230256320680C3050E8002F22F0100251
:1016500040E80023002BF5D166632046FFF707FF23
:10166000F8BDFFE705062BD5150629D594F84100EE
:101670002128F5D1A068B0F5805F01D12069B0B113
:10168000206A411C2162216800784860E08C401E7D
:101690000004000CE084E3D12068C16821F08001DF
:1016A000C1602068C16841F04001C160D8E7206A8C
:1016B0000088C0F308004860206A801C2062E5E7CB
:1016C0004006CDD55006CBD5CA68204622F0400250
:1016D000CA6084F8413000F0F9F8C1E7F71B000850
:1016E00070B5040004D094F84100002510B106E064
:1016F000012070BD84F84050204600F023F82420DB
:1017000084F841002068C16821F40051C16020467E
:1017100000F002FB2068016921F49041016120681A
:10172000416921F02A0141612068C16841F40051FA
:10173000C1606564202084F8410084F8420065633C
:10174000002070BD30B585B000240094019402944F
:1017500003940068184988422CD11848C16941F4A3
:101760008021C161C16901F480210491816941F046
:10177000080181618069124D00F0080004904FF467
:101780008060009002200190032003906946284663
:10179000FFF746F8E814CDE90004694628460294AC
:1017A000FFF73EF8002211462720FFF79BF927207C
:1017B000FFF78AF905B030BD004800400010024034
:1017C000000C014090F84230202B01D002207047DD
:1017D00021B11AB10023036300F0FABA0120704767
:1017E00010B500680D49884216D10D4804460178AD
:1017F00061706088C82808D260880A4A0244401C88
:1018000060801170FFF702F96060BDE810400122AE
:1018100003490548FFF7D6BF10BD0000004800404F
:1018200010000020AC000020640000202DE9F843E7
:10183000044690F84100984616460D46202802D0EE
:101840000220BDE8F88385B17EB1002060642120CC
:1018500084F84100FFF7DAF8A6848146E684A068A0
:101860002027B0F5805F02D003E00120E9E720697E
:1018700010B12E4600250EE000260CE08021204607
:1018800000F0C1FAA8B9C6B116F8010B216848608A
:10189000E08C401EE084E08C4B464FF00002CDF817
:1018A00000800028EAD14FF04001204600F0ABFA5A
:1018B00040B184F841700320C3E735F8020BC0F350
:1018C0000800E3E784F841700020BAE77047FEE7BC
:1018D00070B586B0002418480094019402940394D3
:1018E000816941F040018161816901F04001049109
:1018F000816941F008018161816901F00801049169
:10190000816941F00401816180690C4E00F004009E
:101910004FF400450490002229463046FFF770F846
:1019200001200095CDE9010402200390694630466C
:10193000FEF776FF06B070BD0010024000180140AF
:1019400010B500F067F80848002141804160014669
:1019500001220648FFF736FF002803D0BDE81040FB
:10196000FEF78EBE10BD00001000002064000020B5
:1019700010B586B000241648009401940294039494
:1019800004944FF080410594016041F61F41C0E985
:1019900001146321C0E903148461FFF713FC08B14B
:1019A000FEF76EFE4FF48050009069460848FFF73E
:1019B00053FC08B1FEF764FE049404A9044805949E
:1019C000FFF7C6FB002801D0FEF75AFE06B010BD97
:1019D0001C0000200C4810B50A4901604FF4E131A9
:1019E0004160002181600C22C160C0E90412816164
:1019F000C161FFF775FE002803D0BDE81040FEF777
:101A00003FBE10BD0048004064000020FEE7FEE736
:101A10007047000000224FF400410148FEF7F0BF7C
:101A2000001801400122D1030148FEF7E9BF000080
:101A30000018014070B50C4605004FF0FF3603D08A
:101A400014B1B4F5803F01D3304670BDFFF7EAFF13
:101A50000120FEF7D3FEA2B2344633462946084899
:101A6000FFF7E4FE0546064800680168C9434906D9
:101A7000FBD4FFF7CFFF0DB1204670BD002070BD35
:101A8000640000207047FEF7C7BF000070B594B037
:101A900038216846FEF786FC14210EA8FEF782FC6A
:101AA000012500242804CDE902040226CDE90860BE
:101AB0000095059501944FF4E010CDE90A046846BD
:101AC000FFF73EF908B172B6FEE70F20CDE90E062A
:101AD0004FF48060CDE91040129002210EA8FFF76C
:101AE00033F808B172B6FEE70148056714B070BD5F
:101AF00000004242704700000148FFF71CBC000094
:101B00001C000020F0B502681C4B1D4C1D4D1E4EE4
:101B10004FF08047984207D0B84205D0A04203D08A
:101B2000A84201D0B04204D122F0700C4A6842EAC7
:101B30000C02984207D0B84205D0A04203D0A84278
:101B400001D0B04203D122F44074CA6822434C69E8
:101B500022F08002224302608A68C2620A688262BE
:101B6000984201D109690163012141610169C907F5
:101B700003D0016921F001010161F0BD002C014099
:101B80000004004000080040000C004010B58468CC
:101B900042EA032224F47F440A432243826010BDB8
:101BA000826822F070020A4342F0070181607047A8
:101BB00010B5036A046A24F001040462846924F005
:101BC000F00444EA021423F00A020A438461026228
:101BD00010BD10B5036A046A24F01004046284691D
:101BE00023F0A00324F4704444EA023243EA0111D2
:101BF0008261016210BD10B5406A0021C185C184B7
:101C0000FFF736FC10BD01680C3151E8002F22F4BB
:101C1000907241E80023002BF5D10168143151E89E
:101C2000002F22F0010241E80023002BF5D1016BC7
:101C3000012909D101680C3151E8002F22F010026E
:101C400041E80023002BF5D1202180F8421000212B
:101C50000163704708B590F84210222901D0022094
:101C600008BD82684FF480539A4201D1016921B1C5
:101C7000816A9A421BD04AB10AE00268816A5268BE
:101C8000C2F308020A80816A891C08E0026972B105
:101C90000268526802F07F020A70816A491C816200
:101CA000C18D491E0904090CC18503D01BE00268DF
:101CB0005268F1E70168CA6822F02002CA60016830
:101CC000CA6822F48072CA6001684A6922F001027F
:101CD0004A61202180F8421000214163026B012AF1
:101CE00003D0FFF77DFD002008BD016301680C31C2
:101CF00051E8002F22F0100241E80023002BF5D11B
:101D000001680A68D20602D50A6849680091818D87
:101D1000FFF7ADFBE7E7000070B504460068016916
:101D2000E26821F44051114301612169A068084330
:101D3000616908432168CA6841F20C639A4302430F
:101D4000CA6020684169A26921F440711143416170
:101D50001E492068884202D1FEF79CFF01E0FEF791
:101D600089FF00EBC00101EB001260686421800074
:101D7000B2FBF0F3B3FBF1F36FF018067343B2FB61
:101D8000F0F5B2FBF0F605EB8305322303EB051506
:101D9000B5FBF1F5B6FBF1F605F0F00505EB061520
:101DA000B2FBF0F6B2FBF0F0B0FBF1F06FF018020E
:101DB000504306EB800003EB0010B0FBF1F021680C
:101DC00000F00F002844886070BD0000003801401A
:101DD00081628285C28500214164222180F84210FF
:101DE000016921B10168CA6842F48072CA60016861
:101DF0004A6942F001024A610068C16841F020016D
:101E0000C160002070472DE9F843984617460D46FB
:101E10000446089E24E0701C22D0FEF7F7FDA0EBDC
:101E20000800B0421AD8CEB12068C168490717D55A
:101E3000802D15D0402D13D00168C94309070FD458
:101E400001680025406800902046FFF7DCFE08206E
:101E5000606484F840500120BDE8F8830320FBE76C
:101E60002068006835EA000004D00020B842D2D0D3
:101E70000020F1E70120F9E70148FFF7FBBA000075
:101E800064000020FEE70907090E002804DB00F1CA
:101E9000E02080F80014704700F00F0000F1E0200F
:101EA00080F8141D7047FEF7BFFDFFF7EFFDFFF749
:101EB0000FFDFFF78FFDFFF743FDFFF759FDFEF71D
:101EC00021FBFEF793FB4FF4FA742046FEF796FCD5
:101ED000FEF718FBFEF78AFB2046FEF78FFCFEF7A5
:101EE00011FBFEF783FB2046FEF788FCFEF70AFB9A
:101EF000FEF7B8FB2046FEF781FCFEF703FBFEF77A
:101F000009FB2046FEF77AFCFEF7FCFAFEF70EFB13
:101F10002046FEF773FCFEF7F5FAFEF713FB2046AA
:101F2000FEF76CFCFEF7EEFAFEF700FB2046FEF72C
:101F300065FCFEF7E7FAFEF711FB2046FEF75EFCB4
:101F4000FEF7E0FAFEF7FEFA2046FEF757FCFEF732
:101F5000D9FAFEF7EBFA2046FEF750FCFEF7D2FA6C
:101F6000FEF7F0FA2046FEF749FCFEF7CBFAFEF743
:101F700079FB2046FEF742FCFEF7C4FAFEF766FB4B
:101F80002046FEF73BFCFEF7BDFAFEF7E7FA2046D7
:101F9000FEF734FCFEF7B6FAFEF734FB2046FEF7F8
:101FA0002DFCFEF7AFFAFEF745FB2046FEF726FCB8
:101FB000FEF7A8FAFEF732FBD4E700000405060797
:101FC000080900000000000D0102030405060708CF
:101FD000090A0B0C0D0E0F1000000000000000009D
:101FE00001020304060708090000000001020304BF
:101FF000000004FCE50B0492E50B000000000492D5
:10200000E50B0000000004FCE50B04FCE50B04FC00
:10201000E50B0466E50B0497E50B0497E50B0497C5
:10202000E50B0497E50B0466E50B04B1E50B000036
:1020300000000000000000000000000000000000A0
:10204000000000000000000000000100000000008F
:102050000000003030394B515A4E4332303032306C
:1020600030415900000000000000000000000000A6
:102070000000000000003030394B515A4E433230DE
:1020800030323030415900CBD349F38C7DB24256C7
:10209000EFABF57137A9C348003130B5E472BCC16C
:1020A000D5E1BD0657A4E6771500CBD349F38C7D67
:1020B000B24256EFABF57137A9C348003230000089
:1020C0000000000000000000000000000000000010
:1020D00000000000000000000000000000000046BA
:1020E000372819EFBEADDE00000000000C2100080B
:1020F000000000201C0000008C01000828210008BE
:102100001C000020BC070000A8010008010000001E
:10211000100000000000000000127A000000000023
:082120000000000000000000B7
:04000005080001519D
:00000001FF
